{
  "contractName": "Pausable",
  "abi": [
    {
      "constant": true,
      "inputs": [],
      "name": "paused",
      "outputs": [
        {
          "name": "",
          "type": "bool"
        }
      ],
      "payable": false,
      "stateMutability": "view",
      "type": "function"
    },
    {
      "constant": true,
      "inputs": [],
      "name": "getOwner",
      "outputs": [
        {
          "name": "myOwner",
          "type": "address"
        }
      ],
      "payable": false,
      "stateMutability": "view",
      "type": "function"
    },
    {
      "constant": false,
      "inputs": [
        {
          "name": "newOwner",
          "type": "address"
        }
      ],
      "name": "changeOwner",
      "outputs": [
        {
          "name": "success",
          "type": "bool"
        }
      ],
      "payable": false,
      "stateMutability": "nonpayable",
      "type": "function"
    },
    {
      "inputs": [],
      "payable": false,
      "stateMutability": "nonpayable",
      "type": "constructor"
    },
    {
      "anonymous": false,
      "inputs": [
        {
          "indexed": false,
          "name": "pausedBy",
          "type": "address"
        }
      ],
      "name": "LogPaused",
      "type": "event"
    },
    {
      "anonymous": false,
      "inputs": [
        {
          "indexed": false,
          "name": "resumedBy",
          "type": "address"
        }
      ],
      "name": "LogResumedContract",
      "type": "event"
    },
    {
      "anonymous": false,
      "inputs": [
        {
          "indexed": false,
          "name": "sender",
          "type": "address"
        },
        {
          "indexed": false,
          "name": "theNewOwner",
          "type": "address"
        }
      ],
      "name": "LogChangeOwner",
      "type": "event"
    },
    {
      "constant": false,
      "inputs": [],
      "name": "contractPaused",
      "outputs": [
        {
          "name": "success",
          "type": "bool"
        }
      ],
      "payable": false,
      "stateMutability": "nonpayable",
      "type": "function"
    },
    {
      "constant": false,
      "inputs": [],
      "name": "resume",
      "outputs": [
        {
          "name": "success",
          "type": "bool"
        }
      ],
      "payable": false,
      "stateMutability": "nonpayable",
      "type": "function"
    }
  ],
  "bytecode": "0x608060405234801561001057600080fd5b50336000806101000a81548173ffffffffffffffffffffffffffffffffffffffff021916908373ffffffffffffffffffffffffffffffffffffffff16021790555060008060146101000a81548160ff0219169083151502179055506106e78061007a6000396000f3fe60806040526004361061006d576000357c0100000000000000000000000000000000000000000000000000000000900463ffffffff168063046f7da2146100725780635c975abb146100a1578063893d20e8146100d05780638a67456a14610127578063a6f9dae114610156575b600080fd5b34801561007e57600080fd5b506100876101bf565b604051808215151515815260200191505060405180910390f35b3480156100ad57600080fd5b506100b6610309565b604051808215151515815260200191505060405180910390f35b3480156100dc57600080fd5b506100e561031c565b604051808273ffffffffffffffffffffffffffffffffffffffff1673ffffffffffffffffffffffffffffffffffffffff16815260200191505060405180910390f35b34801561013357600080fd5b5061013c610345565b604051808215151515815260200191505060405180910390f35b34801561016257600080fd5b506101a56004803603602081101561017957600080fd5b81019080803573ffffffffffffffffffffffffffffffffffffffff169060200190929190505050610515565b604051808215151515815260200191505060405180910390f35b60008060009054906101000a900473ffffffffffffffffffffffffffffffffffffffff1673ffffffffffffffffffffffffffffffffffffffff163373ffffffffffffffffffffffffffffffffffffffff16141515610285576040517f08c379a000000000000000000000000000000000000000000000000000000000815260040180806020018281038252601b8152602001807f4f6e6c79206f776e65722063616e206d616b65206368616e676573000000000081525060200191505060405180910390fd5b60008060146101000a81548160ff0219169083151502179055507f9462c22f62fe0e78a883a0adee3ba3cea8e9260940405ae88d97364fc9c6699233604051808273ffffffffffffffffffffffffffffffffffffffff1673ffffffffffffffffffffffffffffffffffffffff16815260200191505060405180910390a16001905090565b600060149054906101000a900460ff1681565b60008060009054906101000a900473ffffffffffffffffffffffffffffffffffffffff16905090565b60008060009054906101000a900473ffffffffffffffffffffffffffffffffffffffff1673ffffffffffffffffffffffffffffffffffffffff163373ffffffffffffffffffffffffffffffffffffffff1614151561040b576040517f08c379a000000000000000000000000000000000000000000000000000000000815260040180806020018281038252601b8152602001807f4f6e6c79206f776e65722063616e206d616b65206368616e676573000000000081525060200191505060405180910390fd5b600060149054906101000a900460ff16151515610490576040517f08c379a000000000000000000000000000000000000000000000000000000000815260040180806020018281038252600f8152602001807f436f6e747261637420706175736564000000000000000000000000000000000081525060200191505060405180910390fd5b6001600060146101000a81548160ff0219169083151502179055507fce3af5a3fdaee3c4327c1c434ea1d2186d7a9495f005d2a876dca182bd14571433604051808273ffffffffffffffffffffffffffffffffffffffff1673ffffffffffffffffffffffffffffffffffffffff16815260200191505060405180910390a16001905090565b60008060009054906101000a900473ffffffffffffffffffffffffffffffffffffffff1673ffffffffffffffffffffffffffffffffffffffff163373ffffffffffffffffffffffffffffffffffffffff161415156105db576040517f08c379a000000000000000000000000000000000000000000000000000000000815260040180806020018281038252601b8152602001807f4f6e6c79206f776e65722063616e206d616b65206368616e676573000000000081525060200191505060405180910390fd5b816000806101000a81548173ffffffffffffffffffffffffffffffffffffffff021916908373ffffffffffffffffffffffffffffffffffffffff1602179055507f96b36bedce75759b139551b10b3d2e1e863dbbfbdc30f9f9e374bb24431d5da23383604051808373ffffffffffffffffffffffffffffffffffffffff1673ffffffffffffffffffffffffffffffffffffffff1681526020018273ffffffffffffffffffffffffffffffffffffffff1673ffffffffffffffffffffffffffffffffffffffff1681526020019250505060405180910390a16001905091905056fea165627a7a723058200ceac9a265af45f740dd86187716237bb6efb841d2767adb5d8592c3b62a7e620029",
  "source": "pragma solidity ^0.5.0;\r\n\r\nimport \"./Owner.sol\";\r\n\r\ncontract Pausable is Owner {\r\n    bool public paused;\r\n\r\n    //event LogPaused (bool newState, address pausedBy);\r\n    event LogPaused (address pausedBy);\r\n    event LogResumedContract(address resumedBy);\r\n    \r\n    modifier notPaused() {\r\n        require (!paused, \"Contract paused\");\r\n        _;\r\n    }\r\n\r\n    constructor() public {\r\n        paused = false;\r\n    }\r\n\r\n    function contractPaused() public onlyOwner notPaused returns (bool success){\r\n        //require(!paused);\r\n        paused= true;\r\n        emit LogPaused(msg.sender);\r\n        return true;\r\n    }\r\n\r\n    function resume() public onlyOwner returns (bool success){\r\n        //require(paused);\r\n        paused = false;\r\n        emit LogResumedContract(msg.sender);\r\n        return true;\r\n    }\r\n}\r\n",
  "sourcePath": "/home/juan/DAPPS/Remittance-Proyect/contracts/Pausable.sol",
  "compiler": {
    "name": "solc",
    "version": "0.5.0+commit.1d4f565a.Emscripten.clang"
  },
  "schemaVersion": "3.0.3",
  "updatedAt": "2019-05-14T19:16:55.672Z",
  "devdoc": {
    "methods": {}
  },
  "userdoc": {
    "methods": {}
  }
}