{
  "contractName": "Remittance",
  "abi": [
    {
      "constant": false,
      "inputs": [],
      "name": "resume",
      "outputs": [
        {
          "name": "success",
          "type": "bool"
        }
      ],
      "payable": false,
      "stateMutability": "nonpayable",
      "type": "function"
    },
    {
      "constant": true,
      "inputs": [
        {
          "name": "",
          "type": "address"
        }
      ],
      "name": "balances",
      "outputs": [
        {
          "name": "",
          "type": "uint256"
        }
      ],
      "payable": false,
      "stateMutability": "view",
      "type": "function"
    },
    {
      "constant": true,
      "inputs": [],
      "name": "paused",
      "outputs": [
        {
          "name": "",
          "type": "bool"
        }
      ],
      "payable": false,
      "stateMutability": "view",
      "type": "function"
    },
    {
      "constant": true,
      "inputs": [],
      "name": "getOwner",
      "outputs": [
        {
          "name": "myOwner",
          "type": "address"
        }
      ],
      "payable": false,
      "stateMutability": "view",
      "type": "function"
    },
    {
      "constant": false,
      "inputs": [],
      "name": "contractPaused",
      "outputs": [
        {
          "name": "success",
          "type": "bool"
        }
      ],
      "payable": false,
      "stateMutability": "nonpayable",
      "type": "function"
    },
    {
      "constant": true,
      "inputs": [
        {
          "name": "",
          "type": "bytes32"
        }
      ],
      "name": "remittances",
      "outputs": [
        {
          "name": "exchanger",
          "type": "address"
        },
        {
          "name": "thesender",
          "type": "address"
        },
        {
          "name": "thelimit",
          "type": "uint256"
        },
        {
          "name": "withdraw",
          "type": "bool"
        }
      ],
      "payable": false,
      "stateMutability": "view",
      "type": "function"
    },
    {
      "constant": false,
      "inputs": [
        {
          "name": "newOwner",
          "type": "address"
        }
      ],
      "name": "changeOwner",
      "outputs": [
        {
          "name": "success",
          "type": "bool"
        }
      ],
      "payable": false,
      "stateMutability": "nonpayable",
      "type": "function"
    },
    {
      "inputs": [],
      "payable": false,
      "stateMutability": "nonpayable",
      "type": "constructor"
    },
    {
      "anonymous": false,
      "inputs": [
        {
          "indexed": false,
          "name": "sender",
          "type": "address"
        },
        {
          "indexed": false,
          "name": "exchanger",
          "type": "address"
        },
        {
          "indexed": false,
          "name": "limit",
          "type": "uint256"
        },
        {
          "indexed": false,
          "name": "hashOfBoth",
          "type": "bytes32"
        }
      ],
      "name": "LogRemitSend",
      "type": "event"
    },
    {
      "anonymous": false,
      "inputs": [
        {
          "indexed": false,
          "name": "sender",
          "type": "address"
        },
        {
          "indexed": false,
          "name": "receiver",
          "type": "address"
        },
        {
          "indexed": false,
          "name": "amount",
          "type": "uint256"
        }
      ],
      "name": "LogWithdrawal",
      "type": "event"
    },
    {
      "anonymous": false,
      "inputs": [
        {
          "indexed": false,
          "name": "sender",
          "type": "address"
        },
        {
          "indexed": false,
          "name": "amount",
          "type": "uint256"
        }
      ],
      "name": "LogTimeUpWithdraw",
      "type": "event"
    },
    {
      "anonymous": false,
      "inputs": [
        {
          "indexed": false,
          "name": "pausedBy",
          "type": "address"
        }
      ],
      "name": "LogPaused",
      "type": "event"
    },
    {
      "anonymous": false,
      "inputs": [
        {
          "indexed": false,
          "name": "resumedBy",
          "type": "address"
        }
      ],
      "name": "LogResumedContract",
      "type": "event"
    },
    {
      "anonymous": false,
      "inputs": [
        {
          "indexed": false,
          "name": "sender",
          "type": "address"
        },
        {
          "indexed": false,
          "name": "theNewOwner",
          "type": "address"
        }
      ],
      "name": "LogChangeOwner",
      "type": "event"
    },
    {
      "constant": false,
      "inputs": [
        {
          "name": "hashOfBoth",
          "type": "bytes32"
        },
        {
          "name": "limit",
          "type": "uint256"
        },
        {
          "name": "exchanger",
          "type": "address"
        }
      ],
      "name": "sendRemittance",
      "outputs": [
        {
          "name": "success",
          "type": "bool"
        }
      ],
      "payable": true,
      "stateMutability": "payable",
      "type": "function"
    },
    {
      "constant": false,
      "inputs": [
        {
          "name": "pwsswordBob",
          "type": "bytes32"
        },
        {
          "name": "passwordCarol",
          "type": "bytes32"
        }
      ],
      "name": "exchangerWithdrawl",
      "outputs": [
        {
          "name": "success",
          "type": "bool"
        }
      ],
      "payable": false,
      "stateMutability": "nonpayable",
      "type": "function"
    },
    {
      "constant": false,
      "inputs": [
        {
          "name": "hashOfBoth",
          "type": "bytes32"
        }
      ],
      "name": "timeLimitUp",
      "outputs": [
        {
          "name": "success",
          "type": "bool"
        }
      ],
      "payable": false,
      "stateMutability": "nonpayable",
      "type": "function"
    }
  ],
  "bytecode": "0x608060405234801561001057600080fd5b50336000806101000a81548173ffffffffffffffffffffffffffffffffffffffff021916908373ffffffffffffffffffffffffffffffffffffffff16021790555060008060146101000a81548160ff021916908315150217905550619d804301600381905550611233806100856000396000f3fe6080604052600436106100a4576000357c0100000000000000000000000000000000000000000000000000000000900463ffffffff168063046f7da2146100a957806327e235e3146100d8578063436b11a61461013d5780635c975abb14610190578063893d20e8146101bf5780638a67456a146102165780638efe4aa2146102455780639c922d2a146102a2578063a6f9dae114610362578063f756284d146103cb575b600080fd5b3480156100b557600080fd5b506100be61043b565b604051808215151515815260200191505060405180910390f35b3480156100e457600080fd5b50610127600480360360208110156100fb57600080fd5b81019080803573ffffffffffffffffffffffffffffffffffffffff169060200190929190505050610585565b6040518082815260200191505060405180910390f35b34801561014957600080fd5b506101766004803603602081101561016057600080fd5b810190808035906020019092919050505061059d565b604051808215151515815260200191505060405180910390f35b34801561019c57600080fd5b506101a5610835565b604051808215151515815260200191505060405180910390f35b3480156101cb57600080fd5b506101d4610848565b604051808273ffffffffffffffffffffffffffffffffffffffff1673ffffffffffffffffffffffffffffffffffffffff16815260200191505060405180910390f35b34801561022257600080fd5b5061022b610871565b604051808215151515815260200191505060405180910390f35b34801561025157600080fd5b506102886004803603604081101561026857600080fd5b810190808035906020019092919080359060200190929190505050610a41565b604051808215151515815260200191505060405180910390f35b3480156102ae57600080fd5b506102db600480360360208110156102c557600080fd5b8101908080359060200190929190505050610d5e565b604051808573ffffffffffffffffffffffffffffffffffffffff1673ffffffffffffffffffffffffffffffffffffffff1681526020018473ffffffffffffffffffffffffffffffffffffffff1673ffffffffffffffffffffffffffffffffffffffff1681526020018381526020018215151515815260200194505050505060405180910390f35b34801561036e57600080fd5b506103b16004803603602081101561038557600080fd5b81019080803573ffffffffffffffffffffffffffffffffffffffff169060200190929190505050610ddb565b604051808215151515815260200191505060405180910390f35b610421600480360360608110156103e157600080fd5b810190808035906020019092919080359060200190929190803573ffffffffffffffffffffffffffffffffffffffff169060200190929190505050610f81565b604051808215151515815260200191505060405180910390f35b60008060009054906101000a900473ffffffffffffffffffffffffffffffffffffffff1673ffffffffffffffffffffffffffffffffffffffff163373ffffffffffffffffffffffffffffffffffffffff16141515610501576040517f08c379a000000000000000000000000000000000000000000000000000000000815260040180806020018281038252601b8152602001807f4f6e6c79206f776e65722063616e206d616b65206368616e676573000000000081525060200191505060405180910390fd5b60008060146101000a81548160ff0219169083151502179055507f9462c22f62fe0e78a883a0adee3ba3cea8e9260940405ae88d97364fc9c6699233604051808273ffffffffffffffffffffffffffffffffffffffff1673ffffffffffffffffffffffffffffffffffffffff16815260200191505060405180910390a16001905090565b60046020528060005260406000206000915090505481565b600060035443101515156105b057600080fd5b3373ffffffffffffffffffffffffffffffffffffffff166001600084815260200190815260200160002060010160009054906101000a900473ffffffffffffffffffffffffffffffffffffffff1673ffffffffffffffffffffffffffffffffffffffff1614151561062057600080fd5b600015156001600084815260200190815260200160002060030160009054906101000a900460ff16151514151561065657600080fd5b6000600460006001600086815260200190815260200160002060000160009054906101000a900473ffffffffffffffffffffffffffffffffffffffff1673ffffffffffffffffffffffffffffffffffffffff1673ffffffffffffffffffffffffffffffffffffffff1681526020019081526020016000205490506000600460006001600087815260200190815260200160002060000160009054906101000a900473ffffffffffffffffffffffffffffffffffffffff1673ffffffffffffffffffffffffffffffffffffffff1673ffffffffffffffffffffffffffffffffffffffff16815260200190815260200160002081905550600180600085815260200190815260200160002060030160006101000a81548160ff0219169083151502179055503373ffffffffffffffffffffffffffffffffffffffff166108fc829081150290604051600060405180830381858888f193505050501580156107bf573d6000803e3d6000fd5b507f9683b90f9a6c36b387f9500c9c935f06402f87e7f36a5a1a87c906da5af430603382604051808373ffffffffffffffffffffffffffffffffffffffff1673ffffffffffffffffffffffffffffffffffffffff1681526020018281526020019250505060405180910390a16001915050919050565b600060149054906101000a900460ff1681565b60008060009054906101000a900473ffffffffffffffffffffffffffffffffffffffff16905090565b60008060009054906101000a900473ffffffffffffffffffffffffffffffffffffffff1673ffffffffffffffffffffffffffffffffffffffff163373ffffffffffffffffffffffffffffffffffffffff16141515610937576040517f08c379a000000000000000000000000000000000000000000000000000000000815260040180806020018281038252601b8152602001807f4f6e6c79206f776e65722063616e206d616b65206368616e676573000000000081525060200191505060405180910390fd5b600060149054906101000a900460ff161515156109bc576040517f08c379a000000000000000000000000000000000000000000000000000000000815260040180806020018281038252600f8152602001807f436f6e747261637420706175736564000000000000000000000000000000000081525060200191505060405180910390fd5b6001600060146101000a81548160ff0219169083151502179055507fce3af5a3fdaee3c4327c1c434ea1d2186d7a9495f005d2a876dca182bd14571433604051808273ffffffffffffffffffffffffffffffffffffffff1673ffffffffffffffffffffffffffffffffffffffff16815260200191505060405180910390a16001905090565b6000808383604051602001808381526020018281526020019250505060405160208183030381529060405280519060200120905060006001600083815260200190815260200160002060000160009054906101000a900473ffffffffffffffffffffffffffffffffffffffff1690508073ffffffffffffffffffffffffffffffffffffffff163373ffffffffffffffffffffffffffffffffffffffff16141515610aea57600080fd5b60035443101515610afa57600080fd5b6000600460003373ffffffffffffffffffffffffffffffffffffffff1673ffffffffffffffffffffffffffffffffffffffff16815260200190815260200160002054111515610b4857600080fd5b600015156001600084815260200190815260200160002060030160009054906101000a900460ff161515141515610b7e57600080fd5b6000600460003373ffffffffffffffffffffffffffffffffffffffff1673ffffffffffffffffffffffffffffffffffffffff1681526020019081526020016000205490506000600460003373ffffffffffffffffffffffffffffffffffffffff1673ffffffffffffffffffffffffffffffffffffffff16815260200190815260200160002081905550600180600085815260200190815260200160002060030160006101000a81548160ff0219169083151502179055503373ffffffffffffffffffffffffffffffffffffffff166108fc829081150290604051600060405180830381858888f19350505050158015610c7b573d6000803e3d6000fd5b507f0ec497a8ae5b1ba29c60470ef651def995fac3deebbdcc56c47a4e5f51a4c2bd6001600085815260200190815260200160002060010160009054906101000a900473ffffffffffffffffffffffffffffffffffffffff168383604051808473ffffffffffffffffffffffffffffffffffffffff1673ffffffffffffffffffffffffffffffffffffffff1681526020018373ffffffffffffffffffffffffffffffffffffffff1673ffffffffffffffffffffffffffffffffffffffff168152602001828152602001935050505060405180910390a16001935050505092915050565b60016020528060005260406000206000915090508060000160009054906101000a900473ffffffffffffffffffffffffffffffffffffffff16908060010160009054906101000a900473ffffffffffffffffffffffffffffffffffffffff16908060020154908060030160009054906101000a900460ff16905084565b60008060009054906101000a900473ffffffffffffffffffffffffffffffffffffffff1673ffffffffffffffffffffffffffffffffffffffff163373ffffffffffffffffffffffffffffffffffffffff16141515610ea1576040517f08c379a000000000000000000000000000000000000000000000000000000000815260040180806020018281038252601b8152602001807f4f6e6c79206f776e65722063616e206d616b65206368616e676573000000000081525060200191505060405180910390fd5b816000806101000a81548173ffffffffffffffffffffffffffffffffffffffff021916908373ffffffffffffffffffffffffffffffffffffffff1602179055507f96b36bedce75759b139551b10b3d2e1e863dbbfbdc30f9f9e374bb24431d5da23383604051808373ffffffffffffffffffffffffffffffffffffffff1673ffffffffffffffffffffffffffffffffffffffff1681526020018273ffffffffffffffffffffffffffffffffffffffff1673ffffffffffffffffffffffffffffffffffffffff1681526020019250505060405180910390a160019050919050565b6000803414151515610f9257600080fd5b62093a808311151515610fa457600080fd5b816001600086815260200190815260200160002060000160006101000a81548173ffffffffffffffffffffffffffffffffffffffff021916908373ffffffffffffffffffffffffffffffffffffffff1602179055504283016001600086815260200190815260200160002060020181905550336001600086815260200190815260200160002060010160006101000a81548173ffffffffffffffffffffffffffffffffffffffff021916908373ffffffffffffffffffffffffffffffffffffffff16021790555060006001600086815260200190815260200160002060030160006101000a81548160ff0219169083151502179055506014348115156110a657fe5b04600460006110b3610848565b73ffffffffffffffffffffffffffffffffffffffff1673ffffffffffffffffffffffffffffffffffffffff1681526020019081526020016000206000828254019250508190555060143481151561110657fe5b043403600460008473ffffffffffffffffffffffffffffffffffffffff1673ffffffffffffffffffffffffffffffffffffffff168152602001908152602001600020600082825401925050819055507f0ab64c4ab147eab59641553b32c5babdfbff181b469892137f1ca193fd2a9d2133838587604051808573ffffffffffffffffffffffffffffffffffffffff1673ffffffffffffffffffffffffffffffffffffffff1681526020018473ffffffffffffffffffffffffffffffffffffffff1673ffffffffffffffffffffffffffffffffffffffff16815260200183815260200182815260200194505050505060405180910390a160019050939250505056fea165627a7a7230582063a30cd06de50a6cb36ecbd00a4941614f0535e0bb5b32c2fcc410c7d4f10cb80029",
  "source": "/*Alice creates a Remittance contract with Ether in it and a puzzle.\r\nAlice sends a one-time-password to Bob; over SMS, say.\r\nAlice sends another one-time-password to Carol; over email, say.\r\nBob treks to Carol's shop.\r\nBob gives Carol his one-time-password.\r\nCarol submits both passwords to Alice's remittance contract.\r\nOnly when both passwords are correct does the contract yield the Ether to Carol.\r\nCarol gives the local currency to Bob.\r\nBob leaves.\r\nAlice is notified that the transaction went through.*/\r\n\r\npragma solidity ^0.5.0;\r\n\r\nimport \"./SafeMath.sol\";\r\nimport \"./Pausable.sol\";\r\n  \r\n  \r\n  contract Remittance is Pausable{\r\n      \r\n    struct Remittances {\r\n        address exchanger;\r\n        address thesender; \r\n        uint    thelimit;\r\n        bool    withdraw; //True of false if the funds have been withdrawn by Carol or Alice after timelimit\r\n    }\r\n    \r\n    mapping(bytes32 => Remittances) public remittances; \r\n      \r\n      \r\n      bytes32 keyHash;\r\n      uint blockExpiration;\r\n      \r\n      //event logs\r\n      event LogRemitSend(address sender, address exchanger, uint limit, bytes32 hashOfBoth);\r\n      event LogWithdrawal(address sender, address receiver, uint amount);\r\n      event LogTimeUpWithdraw(address sender, uint amount);\r\n      \r\n      mapping(address => uint) public balances; \r\n      \r\n      \r\n      \r\n      \r\n    constructor() public{\r\n        //keyHash = ;\r\n       blockExpiration = block.number + (7 * 86400 / 15);\r\n      }\r\n      \r\n    function sendRemittance(bytes32 hashOfBoth, uint limit, address exchanger)\r\n    public\r\n    payable\r\n    returns (bool success)\r\n    {\r\n    require(msg.value != 0);\r\n    //Limit must be less than one week. \r\n    require(limit <= 604800);\r\n    remittances[hashOfBoth].exchanger = exchanger;\r\n    remittances[hashOfBoth].thelimit = limit + block.timestamp; \r\n    remittances[hashOfBoth].thesender = msg.sender;\r\n    remittances[hashOfBoth].withdraw = false;\r\n    //Send owner of contract a cut \r\n    balances[getOwner()] += msg.value/20; \r\n    balances[exchanger] += msg.value-(msg.value/20);\r\n    \r\n    emit LogRemitSend(msg.sender, exchanger, limit, hashOfBoth);\r\n    return true;\r\n    }\r\n      \r\n    /*  function sendPassword(address receiver) public returns (bytes32 password){\r\n     //  bytes32 thePassword =\"123456\";      \r\n      // return thePassword;   \r\n      }\r\n\r\n      function receivePassword(address sender) public returns (bool success){\r\n       return true;   \r\n      }*/\r\n      \r\n    //  function withdrawal (uint pwsswordBob, uint passwordCarol)public payable{\r\n          /*Carol submits both passwords to Alice's remittance contract.\r\n         Only when both passwords are correct does the contract yield the Ether to Carol.\r\n         Carol gives the local currency to Bob.\r\n         Bob leaves.\r\n         Alice is notified that the transaction went through*/\r\n     /*   require(keccak256(abi.encodePacked(pwsswordBob, passwordCarol)) == keyHash, \"Access denied\"); \r\n        require(block.number < blockExpiration);\r\n        msg.sender.transfer(address(this).balance);\r\n        emit LogWithdrawal(msg.sender, address(this).balance);\r\n      }*/\r\n      \r\n    function exchangerWithdrawl(bytes32 pwsswordBob, bytes32  passwordCarol)\r\n    public\r\n    returns (bool success)\r\n    {\r\n    //bytes32 completepass = keccak256(hashone, hashtwo);\r\n    bytes32 completepass = keccak256(abi.encodePacked(pwsswordBob, passwordCarol));\r\n    address exchanger = remittances[completepass].exchanger; \r\n    /* Require that only the allotted exchanger can access. This checks that this exchanger is \r\n    allotted to this 'hash'or this remittance case. */\r\n    require(msg.sender == exchanger);\r\n    //require(isStillGoing(completepass) == true);\r\n    require(block.number < blockExpiration);\r\n    require(balances[msg.sender] > 0);\r\n    require(remittances[completepass].withdraw == false);\r\n    uint tosend = balances[msg.sender];\r\n    balances[msg.sender] = 0;\r\n    remittances[completepass].withdraw = true; \r\n    msg.sender.transfer(tosend);\r\n    emit LogWithdrawal(remittances[completepass].thesender, exchanger, tosend);   \r\n    return true;\r\n   }\r\n    \r\n    /* If Carol fails to withdrawl funds before the timeline ends, \r\nAlice needs to be able retrieve funds. This function allows Alice to withdrawl funds after the deadline.*/\r\n    function timeLimitUp(bytes32 hashOfBoth)\r\n    public\r\n    returns (bool success)\r\n    {\r\n   // require(isStillGoing(hashOfBoth) == false);\r\n    require(block.number >= blockExpiration);\r\n    require(remittances[hashOfBoth].thesender == msg.sender);\r\n    require(remittances[hashOfBoth].withdraw == false);\r\n    /* Allowing Alice  to withdraw the amount that she allotted to Carol. */\r\n    uint tosend = balances[remittances[hashOfBoth].exchanger];\r\n    balances[remittances[hashOfBoth].exchanger] = 0; \r\n    remittances[hashOfBoth].withdraw = true; \r\n    msg.sender.transfer(tosend);\r\n    emit LogTimeUpWithdraw(msg.sender, tosend);\r\n    return true;\r\n   }  \r\n      \r\n      \r\n }",
  "sourcePath": "/home/juan/DAPPS/Remittance-Proyect/contracts/Remittance.sol",
  "compiler": {
    "name": "solc",
    "version": "0.5.0+commit.1d4f565a.Emscripten.clang"
  },
  "schemaVersion": "3.0.3",
  "updatedAt": "2019-05-14T19:16:55.672Z",
  "devdoc": {
    "methods": {}
  },
  "userdoc": {
    "methods": {}
  }
}